{
  "contractName": "InspectBlock",
  "abi": [
    {
      "anonymous": false,
      "inputs": [
        {
          "indexed": true,
          "name": "_from",
          "type": "address"
        },
        {
          "indexed": true,
          "name": "_to",
          "type": "address"
        },
        {
          "indexed": true,
          "name": "_tokenId",
          "type": "uint256"
        }
      ],
      "name": "Transfer",
      "type": "event"
    },
    {
      "anonymous": false,
      "inputs": [
        {
          "indexed": true,
          "name": "_owner",
          "type": "address"
        },
        {
          "indexed": true,
          "name": "_approved",
          "type": "address"
        },
        {
          "indexed": true,
          "name": "_tokenId",
          "type": "uint256"
        }
      ],
      "name": "Approval",
      "type": "event"
    },
    {
      "anonymous": false,
      "inputs": [
        {
          "indexed": true,
          "name": "_owner",
          "type": "address"
        },
        {
          "indexed": true,
          "name": "_operator",
          "type": "address"
        },
        {
          "indexed": false,
          "name": "_approved",
          "type": "bool"
        }
      ],
      "name": "ApprovalForAll",
      "type": "event"
    },
    {
      "constant": true,
      "inputs": [
        {
          "name": "owner",
          "type": "address"
        }
      ],
      "name": "balanceOf",
      "outputs": [
        {
          "name": "",
          "type": "uint256"
        }
      ],
      "payable": false,
      "stateMutability": "view",
      "type": "function"
    },
    {
      "constant": true,
      "inputs": [
        {
          "name": "decalId",
          "type": "uint256"
        }
      ],
      "name": "ownerOf",
      "outputs": [
        {
          "name": "",
          "type": "address"
        }
      ],
      "payable": false,
      "stateMutability": "view",
      "type": "function"
    },
    {
      "constant": false,
      "inputs": [
        {
          "name": "to",
          "type": "address"
        },
        {
          "name": "decalId",
          "type": "uint256"
        }
      ],
      "name": "approve",
      "outputs": [],
      "payable": false,
      "stateMutability": "nonpayable",
      "type": "function"
    },
    {
      "constant": true,
      "inputs": [
        {
          "name": "decalId",
          "type": "uint256"
        }
      ],
      "name": "getApproved",
      "outputs": [
        {
          "name": "",
          "type": "address"
        }
      ],
      "payable": false,
      "stateMutability": "view",
      "type": "function"
    },
    {
      "constant": false,
      "inputs": [
        {
          "name": "to",
          "type": "address"
        },
        {
          "name": "approved",
          "type": "bool"
        }
      ],
      "name": "setApprovalForAll",
      "outputs": [],
      "payable": false,
      "stateMutability": "nonpayable",
      "type": "function"
    },
    {
      "constant": true,
      "inputs": [
        {
          "name": "owner",
          "type": "address"
        },
        {
          "name": "operator",
          "type": "address"
        }
      ],
      "name": "isApprovedForAll",
      "outputs": [
        {
          "name": "",
          "type": "bool"
        }
      ],
      "payable": false,
      "stateMutability": "view",
      "type": "function"
    },
    {
      "constant": false,
      "inputs": [
        {
          "name": "from",
          "type": "address"
        },
        {
          "name": "to",
          "type": "address"
        },
        {
          "name": "decalId",
          "type": "uint256"
        }
      ],
      "name": "transferFrom",
      "outputs": [],
      "payable": false,
      "stateMutability": "nonpayable",
      "type": "function"
    },
    {
      "constant": false,
      "inputs": [
        {
          "name": "from",
          "type": "address"
        },
        {
          "name": "to",
          "type": "address"
        },
        {
          "name": "decalId",
          "type": "uint256"
        }
      ],
      "name": "safeTransferFrom",
      "outputs": [],
      "payable": false,
      "stateMutability": "nonpayable",
      "type": "function"
    },
    {
      "constant": false,
      "inputs": [
        {
          "name": "from",
          "type": "address"
        },
        {
          "name": "to",
          "type": "address"
        },
        {
          "name": "decalId",
          "type": "uint256"
        },
        {
          "name": "_data",
          "type": "bytes"
        }
      ],
      "name": "safeTransferFrom",
      "outputs": [],
      "payable": false,
      "stateMutability": "nonpayable",
      "type": "function"
    },
    {
      "constant": true,
      "inputs": [],
      "name": "weaponDecalsOfOwner",
      "outputs": [
        {
          "name": "ownerDecals",
          "type": "uint256[]"
        }
      ],
      "payable": false,
      "stateMutability": "view",
      "type": "function"
    },
    {
      "constant": true,
      "inputs": [],
      "name": "totalSupply",
      "outputs": [
        {
          "name": "",
          "type": "uint256"
        }
      ],
      "payable": false,
      "stateMutability": "view",
      "type": "function"
    }
  ],
  "bytecode": "0x608060405234801561001057600080fd5b5061101a806100206000396000f3006080604052600436106100af576000357c0100000000000000000000000000000000000000000000000000000000900463ffffffff168063081812fc146100b4578063095ea7b31461012157806318160ddd1461016e57806323b872dd1461019957806342842e0e146102065780636352211e1461027357806370a08231146102e0578063a22cb46514610337578063b88d4fde14610386578063da07221614610439578063e985e9c5146104a5575b600080fd5b3480156100c057600080fd5b506100df60048036038101908080359060200190929190505050610520565b604051808273ffffffffffffffffffffffffffffffffffffffff1673ffffffffffffffffffffffffffffffffffffffff16815260200191505060405180910390f35b34801561012d57600080fd5b5061016c600480360381019080803573ffffffffffffffffffffffffffffffffffffffff16906020019092919080359060200190929190505050610571565b005b34801561017a57600080fd5b506101836106b6565b6040518082815260200191505060405180910390f35b3480156101a557600080fd5b50610204600480360381019080803573ffffffffffffffffffffffffffffffffffffffff169060200190929190803573ffffffffffffffffffffffffffffffffffffffff169060200190929190803590602001909291905050506106c6565b005b34801561021257600080fd5b50610271600480360381019080803573ffffffffffffffffffffffffffffffffffffffff169060200190929190803573ffffffffffffffffffffffffffffffffffffffff16906020019092919080359060200190929190505050610796565b005b34801561027f57600080fd5b5061029e600480360381019080803590602001909291905050506107b7565b604051808273ffffffffffffffffffffffffffffffffffffffff1673ffffffffffffffffffffffffffffffffffffffff16815260200191505060405180910390f35b3480156102ec57600080fd5b50610321600480360381019080803573ffffffffffffffffffffffffffffffffffffffff169060200190929190505050610835565b6040518082815260200191505060405180910390f35b34801561034357600080fd5b50610384600480360381019080803573ffffffffffffffffffffffffffffffffffffffff1690602001909291908035151590602001909291905050506108b9565b005b34801561039257600080fd5b50610437600480360381019080803573ffffffffffffffffffffffffffffffffffffffff169060200190929190803573ffffffffffffffffffffffffffffffffffffffff16906020019092919080359060200190929190803590602001908201803590602001908080601f01602080910402602001604051908101604052809392919081815260200183838082843782019150505050505091929192905050506108bd565b005b34801561044557600080fd5b5061044e6108ce565b6040518080602001828103825283818151815260200191508051906020019060200280838360005b83811015610491578082015181840152602081019050610476565b505050509050019250505060405180910390f35b3480156104b157600080fd5b50610506600480360381019080803573ffffffffffffffffffffffffffffffffffffffff169060200190929190803573ffffffffffffffffffffffffffffffffffffffff169060200190929190505050610a19565b604051808215151515815260200191505060405180910390f35b600061052b82610a24565b151561053657600080fd5b6002600083815260200190815260200160002060009054906101000a900473ffffffffffffffffffffffffffffffffffffffff169050919050565b600061057c826107b7565b90508073ffffffffffffffffffffffffffffffffffffffff168373ffffffffffffffffffffffffffffffffffffffff16141515156105b957600080fd5b8073ffffffffffffffffffffffffffffffffffffffff163373ffffffffffffffffffffffffffffffffffffffff1614806105f957506105f88133610a19565b5b151561060457600080fd5b826002600084815260200190815260200160002060006101000a81548173ffffffffffffffffffffffffffffffffffffffff021916908373ffffffffffffffffffffffffffffffffffffffff160217905550818373ffffffffffffffffffffffffffffffffffffffff168273ffffffffffffffffffffffffffffffffffffffff167f8c5be1e5ebec7d5bd14f71427d1e84f3dd0314c0f7b2291e5b200ac8c7c3b92560405160405180910390a4505050565b6000600160008054905003905090565b6106d03382610a96565b15156106db57600080fd5b600073ffffffffffffffffffffffffffffffffffffffff168273ffffffffffffffffffffffffffffffffffffffff161415151561071757600080fd5b6107218382610b2b565b61072b8382610c2e565b610736838383610d5d565b808273ffffffffffffffffffffffffffffffffffffffff168473ffffffffffffffffffffffffffffffffffffffff167fddf252ad1be2c89b69c2b068fc378daa952ba7f163c4a11628f55a4df523b3ef60405160405180910390a4505050565b6107b283838360206040519081016040528060008152506108bd565b505050565b6000806001600084815260200190815260200160002060009054906101000a900473ffffffffffffffffffffffffffffffffffffffff169050600073ffffffffffffffffffffffffffffffffffffffff168173ffffffffffffffffffffffffffffffffffffffff161415151561082c57600080fd5b80915050919050565b60008073ffffffffffffffffffffffffffffffffffffffff168273ffffffffffffffffffffffffffffffffffffffff161415151561087257600080fd5b600360008373ffffffffffffffffffffffffffffffffffffffff1673ffffffffffffffffffffffffffffffffffffffff168152602001908152602001600020549050919050565b5050565b6108c88484846106c6565b50505050565b60606000606060008060006108e233610835565b9450600085141561092557600060405190808252806020026020018201604052801561091d5781602001602082028038833980820191505090505b509550610a11565b846040519080825280602002602001820160405280156109545781602001602082028038833980820191505090505b50935061095f6106b6565b925060009150600090505b8281111515610a0d573373ffffffffffffffffffffffffffffffffffffffff166001600083815260200190815260200160002060009054906101000a900473ffffffffffffffffffffffffffffffffffffffff1673ffffffffffffffffffffffffffffffffffffffff161415610a00578084838151811015156109e957fe5b906020019060200201818152505081806001019250505b808060010191505061096a565b8395505b505050505090565b600080905092915050565b6000806001600084815260200190815260200160002060009054906101000a900473ffffffffffffffffffffffffffffffffffffffff169050600073ffffffffffffffffffffffffffffffffffffffff168173ffffffffffffffffffffffffffffffffffffffff161415915050919050565b600080610aa2836107b7565b90508073ffffffffffffffffffffffffffffffffffffffff168473ffffffffffffffffffffffffffffffffffffffff161480610b1157508373ffffffffffffffffffffffffffffffffffffffff16610af984610520565b73ffffffffffffffffffffffffffffffffffffffff16145b80610b225750610b218185610a19565b5b91505092915050565b8173ffffffffffffffffffffffffffffffffffffffff16610b4b826107b7565b73ffffffffffffffffffffffffffffffffffffffff16141515610b6d57600080fd5b600073ffffffffffffffffffffffffffffffffffffffff166002600083815260200190815260200160002060009054906101000a900473ffffffffffffffffffffffffffffffffffffffff1673ffffffffffffffffffffffffffffffffffffffff16141515610c2a5760006002600083815260200190815260200160002060006101000a81548173ffffffffffffffffffffffffffffffffffffffff021916908373ffffffffffffffffffffffffffffffffffffffff1602179055505b5050565b8173ffffffffffffffffffffffffffffffffffffffff16610c4e826107b7565b73ffffffffffffffffffffffffffffffffffffffff16141515610c7057600080fd5b610cc36001600360008573ffffffffffffffffffffffffffffffffffffffff1673ffffffffffffffffffffffffffffffffffffffff16815260200190815260200160002054610fcd90919063ffffffff16565b600360008473ffffffffffffffffffffffffffffffffffffffff1673ffffffffffffffffffffffffffffffffffffffff1681526020019081526020016000208190555060006001600083815260200190815260200160002060006101000a81548173ffffffffffffffffffffffffffffffffffffffff021916908373ffffffffffffffffffffffffffffffffffffffff1602179055505050565b600073ffffffffffffffffffffffffffffffffffffffff168273ffffffffffffffffffffffffffffffffffffffff1614151515610d9957600080fd5b3073ffffffffffffffffffffffffffffffffffffffff168273ffffffffffffffffffffffffffffffffffffffff1614151515610dd457600080fd5b8173ffffffffffffffffffffffffffffffffffffffff168373ffffffffffffffffffffffffffffffffffffffff1614151515610e0f57600080fd5b816001600083815260200190815260200160002060006101000a81548173ffffffffffffffffffffffffffffffffffffffff021916908373ffffffffffffffffffffffffffffffffffffffff160217905550600360008373ffffffffffffffffffffffffffffffffffffffff1673ffffffffffffffffffffffffffffffffffffffff16815260200190815260200160002060008154809291906001019190505550600073ffffffffffffffffffffffffffffffffffffffff168373ffffffffffffffffffffffffffffffffffffffff16141515610f6d57600360008473ffffffffffffffffffffffffffffffffffffffff1673ffffffffffffffffffffffffffffffffffffffff16815260200190815260200160002060008154809291906001900391905055506002600082815260200190815260200160002060006101000a81549073ffffffffffffffffffffffffffffffffffffffff02191690555b808273ffffffffffffffffffffffffffffffffffffffff168473ffffffffffffffffffffffffffffffffffffffff167fddf252ad1be2c89b69c2b068fc378daa952ba7f163c4a11628f55a4df523b3ef60405160405180910390a4505050565b600080838311151515610fdf57600080fd5b828403905080915050929150505600a165627a7a7230582002dd1b7362fc59a5cfa1b6f8add8adc7be139a3179fda67ee65433abd0d3d8810029",
  "source": "pragma solidity ^0.4.24;\n\nimport \"./SafeMath.sol\";\nimport \"./ERC721.sol\";\nimport \"./Address.sol\";\n\ncontract InspectBlock is ERC721 {\n  using SafeMath for uint256;\n  using Address for address;\n\n  struct weaponDecal {\n\n\t  //Name of specific weapon\n\t  string name;\n\t  //Weapon type i.e. Classified; Covert; Consumer; Industrial\n\t  string weaponDecalType;\n\t  //Weapon class i.e. AK47; M4A4; AWP; M4A1S\n\t  string weaponClass;\n\t  //The wear of the weapon (this determines its uniqueness)\n\t  uint itemWear;\n  }\n\n  weaponDecal[] internal allWeaponDecals;\n\n  /*TODO: WOULD LIKE TO IMPLEMENT SOMETIME IN THE FUTURE\n  // Equals to `bytes4(keccak256(\"onERC721Received(address,address,uint256,bytes)\"))`\n  // which can be also obtained as `IERC721Receiver(0).onERC721Received.selector`\n  bytes4 private constant _ERC721_RECEIVED = 0x150b7a02;\n  */\n\n  // Mapping from token ID to owner\n  mapping (uint256 => address) private _decalOwner;\n\n  // Mapping from token ID to approved address\n  mapping (uint256 => address) private _decalApprovals;\n\n  // Mapping from owner to number of owned token\n  mapping (address => uint256) private _ownedDecalsCount;\n\n  /*\n   *TODO: WOULD LIKE TO IMPLEMENT SOMEITME IN THE FUTURE\n   */\n  //bytes4 private constant _InterfaceId_ERC721 = 0x80ac58cd;\n  /*\n   * 0x80ac58cd ===\n   *   bytes4(keccak256('balanceOf(address)')) ^\n   *   bytes4(keccak256('ownerOf(uint256)')) ^\n   *   bytes4(keccak256('approve(address,uint256)')) ^\n   *   bytes4(keccak256('getApproved(uint256)')) ^\n   *   bytes4(keccak256('setApprovalForAll(address,bool)')) ^\n   *   bytes4(keccak256('isApprovedForAll(address,address)')) ^\n   *   bytes4(keccak256('transferFrom(address,address,uint256)')) ^\n   *   bytes4(keccak256('safeTransferFrom(address,address,uint256)')) ^\n   *   bytes4(keccak256('safeTransferFrom(address,address,uint256,bytes)'))\n   */\n\n  /*\n   *TODO: WOULD LIKE TO IMPLEMENTSOMETIME IN THE FUTURE\n  constructor()\n    public\n  {\n    // register the supported interfaces to conform to ERC721 via ERC165\n    _registerInterface(_InterfaceId_ERC721);\n  }\n  */\n\n  /**\n   * @dev Gets the balance of the specified address\n   * @param owner address to query the balance of\n   * @return uint256 representing the amount owned by the passed address\n   */\n  function balanceOf(address owner) public view returns (uint256) {\n    require(owner != address(0));\n    return _ownedDecalsCount[owner];\n  }\n\n  /**\n   * @dev Gets the owner of the specified token ID\n   * @param decalId uint256 ID of the token to query the owner of\n   * @return owner address currently marked as the owner of the given token ID\n   */\n  function ownerOf(uint256 decalId) public view returns (address) {\n    address owner = _decalOwner[decalId];\n    require(owner != address(0));\n    return owner;\n  }\n\n  /**\n   * @dev Approves another address to transfer the given token ID\n   * The zero address indicates there is no approved address.\n   * There can only be one approved address per token at a given time.\n   * Can only be called by the token owner or an approved operator.\n   * @param to address to be approved for the given token ID\n   * @param decalId uint256 ID of the token to be approved\n   */\n  function approve(address to, uint256 decalId) public {\n    address owner = ownerOf(decalId);\n    require(to != owner);\n    require(msg.sender == owner || isApprovedForAll(owner, msg.sender));\n\n    _decalApprovals[decalId] = to;\n    emit Approval(owner, to, decalId);\n  }\n\n  /**\n   * @dev Gets the approved address for a token ID, or zero if no address set\n   * Reverts if the token ID does not exist.\n   * @param decalId uint256 ID of the token to query the approval of\n   * @return address currently approved for the given token ID\n   */\n  function getApproved(uint256 decalId) public view returns (address) {\n    require(_exists(decalId));\n    return _decalApprovals[decalId];\n  }\n\n  /**\n   * @dev Sets or unsets the approval of a given operator\n   * An operator is allowed to transfer all tokens of the sender on their behalf\n   * @param to operator address to set the approval\n   * @param approved representing the status of the approval to be set\n   */\n  function setApprovalForAll(address to, bool approved) external {\n    return;\n  }\n\n  /**\n   * @dev Tells whether an operator is approved by a given owner\n   * @param owner owner address which you want to query the approval of\n   * @param operator operator address which you want to query the approval of\n   * @return bool whether the given operator is approved by the given owner\n   */\n  function isApprovedForAll(address owner,address operator) public view returns (bool)\n  {\n    return false;\n  }\n\n  /**\n   * @dev Transfers the ownership of a given token ID to another address\n   * Usage of this method is discouraged, use `safeTransferFrom` whenever possible\n   * Requires the msg sender to be the owner, approved, or operator\n   * @param from current owner of the token\n   * @param to address to receive the ownership of the given token ID\n   * @param decalId uint256 ID of the token to be transferred\n  */\n  function transferFrom(address from, address to, uint256 decalId) public\n  {\n    require(_isApprovedOrOwner(msg.sender, decalId));\n    require(to != address(0));\n\n    _clearApproval(from, decalId);\n    _removeTokenFrom(from, decalId);\n    _transfer(from,to, decalId);\n\n    emit Transfer(from, to, decalId);\n  }\n\n  /**\n   * @dev Safely transfers the ownership of a given token ID to another address\n   * If the target address is a contract, it must implement `onERC721Received`,\n   * which is called upon a safe transfer, and return the magic value\n   * `bytes4(keccak256(\"onERC721Received(address,address,uint256,bytes)\"))`; otherwise,\n   * the transfer is reverted.\n   *\n   * Requires the msg sender to be the owner, approved, or operator\n   * @param from current owner of the token\n   * @param to address to receive the ownership of the given token ID\n   * @param decalId uint256 ID of the token to be transferred\n  */\n  function safeTransferFrom(address from, address to, uint256 decalId) public\n  {\n    // solium-disable-next-line arg-overflow\n    safeTransferFrom(from, to, decalId, \"\");\n  }\n\n  /**\n   * @dev Safely transfers the ownership of a given token ID to another address\n   * If the target address is a contract, it must implement `onERC721Received`,\n   * which is called upon a safe transfer, and return the magic value\n   * `bytes4(keccak256(\"onERC721Received(address,address,uint256,bytes)\"))`; otherwise,\n   * the transfer is reverted.\n   * Requires the msg sender to be the owner, approved, or operator\n   * @param from current owner of the token\n   * @param to address to receive the ownership of the given token ID\n   * @param decalId uint256 ID of the token to be transferred\n   * @param _data bytes data to send along with a safe transfer check\n   */\n  function safeTransferFrom(address from, address to, uint256 decalId, bytes _data) public\n  {\n    transferFrom(from, to, decalId);\n    // solium-disable-next-line arg-overflow\n    //require(_checkAndCallSafeTransfer(from, to, decalId, _data));\n  }\n\n  /**\n   * @dev Returns whether the specified token exists\n   * @param decalId uint256 ID of the token to query the existence of\n   * @return whether the token exists\n   */\n  function _exists(uint256 decalId) internal view returns (bool) {\n    address owner = _decalOwner[decalId];\n    return owner != address(0);\n  }\n\n  /**\n   * @dev Returns whether the given spender can transfer a given token ID\n   * @param spender address of the spender to query\n   * @param decalId uint256 ID of the token to be transferred\n   * @return bool whether the msg.sender is approved for the given token ID,\n   *  is an operator of the owner, or is the owner of the token\n   */\n  function _isApprovedOrOwner(address spender, uint256 decalId) internal view returns (bool)\n  {\n    address owner = ownerOf(decalId);\n    // Disable solium check because of\n    // https://github.com/duaraghav8/Solium/issues/175\n    // solium-disable-next-line operator-whitespace\n    return (\n      spender == owner ||\n      getApproved(decalId) == spender ||\n      isApprovedForAll(owner, spender)\n    );\n  }\n\n  /**\n   * @dev Internal function to mint a new token\n   * Reverts if the given token ID already exists\n   * @param to The address that will own the minted token\n   */\n  function _addNewGunDecal(address to, string _name, string _weaponType, string _weaponClass, uint _itemWear) internal returns (uint){\n    require(to != address(0));\n\n\tweaponDecal memory tempDecal = weaponDecal({\n\t\tname: _name,\n\t\tweaponDecalType: _weaponType,\n\t\tweaponClass: _weaponType,\n\t\titemWear: _itemWear\n\t});\n\n\tuint256 newDecalId = allWeaponDecals.push(tempDecal) - 1;\n\n    _transfer(address(0), to, newDecalId);\n    emit Transfer(address(0), to, newDecalId);\n\n\treturn newDecalId;\n  }\n\n  /**\n   * @dev Internal function to clear current approval of a given token ID\n   * Reverts if the given address is not indeed the owner of the token\n   * @param owner owner of the token\n   * @param decalId uint256 ID of the token to be transferred\n   */\n  function _clearApproval(address owner, uint256 decalId) internal {\n    require(ownerOf(decalId) == owner);\n    if (_decalApprovals[decalId] != address(0)) {\n      _decalApprovals[decalId] = address(0);\n    }\n  }\n\n  /**\n   * @dev Internal function to add a token ID to the list of a given address\n   * @param to address representing the new owner of the given token ID\n   * @param decalId uint256 ID of the token to be added to the tokens list of the given address\n   */\n  function _transfer(address from, address to, uint256 decalId) internal {\n\trequire(to != address(0));\n\trequire(to != address(this));\n\trequire(from != to);\n\n    _decalOwner[decalId] = to;\n    _ownedDecalsCount[to]++;\n\n\tif(from != address(0)) {\n\t\t_ownedDecalsCount[from]--;\n\t\tdelete _decalApprovals[decalId];\n\t}\n\n\temit Transfer(from,to,decalId);\n  }\n\n  /**\n   * @dev Internal function to remove a token ID from the list of a given address\n   * @param from address representing the previous owner of the given token ID\n   * @param decalId uint256 ID of the token to be removed from the tokens list of the given address\n   */\n  function _removeTokenFrom(address from, uint256 decalId) internal {\n    require(ownerOf(decalId) == from);\n    _ownedDecalsCount[from] = _ownedDecalsCount[from].sub(1);\n    _decalOwner[decalId] = address(0);\n  }\n\n  /**TODO: WOULD LIKE TO IMPLEMENT FUNCTION SOMETIME IN THE FUTURE\n   * @dev Internal function to invoke `onERC721Received` on a target address\n   * The call is not executed if the target address is not a contract\n   * @param from address representing the previous owner of the given token ID\n   * @param to target address that will receive the tokens\n   * @param decalId uint256 ID of the token to be transferred\n   * @param _data bytes optional data to send along with the call\n   * @return whether the call correctly returned the expected magic value\n   */\n  /**\n  function _checkAndCallSafeTransfer(\n    address from,\n    address to,\n    uint256 decalId,\n    bytes _data\n  )\n    internal\n    returns (bool)\n  {\n    if (!to.isContract()) {\n      return true;\n    }\n    bytes4 retval = IERC721Receiver(to).onERC721Received(\n      msg.sender, from, decalId, _data);\n    return (retval == _ERC721_RECEIVED);\n  }\n  */\n\n  function weaponDecalsOfOwner() external view returns(uint[] ownerDecals) {\n\t  uint decalCount = balanceOf(msg.sender);\n\n\t  if(decalCount == 0) {\n\t\t  return new uint[](0);\n\t  }\n\t  else {\n\t\t  uint[] memory result = new uint[](decalCount);\n\t\t  uint totalDecals = totalSupply();\n\t\t  uint resultIndex = 0;\n\n\t\t  uint skinId;\n\n\t\t  for(skinId = 0; skinId <= totalDecals; skinId++){\n\t\t\t  if(_decalOwner[skinId] == msg.sender) {\n\t\t\t\t  result[resultIndex] = skinId;\n\t\t\t\t  resultIndex++;\n\t\t\t  }\n\t\t  }\n\n\t\t  return result;\n\t  }\n  }\n\n  function totalSupply() public view returns(uint) {\n\t  return allWeaponDecals.length - 1;\n  }\n\n}\n",
  "sourcePath": "/Users/mantonio/Documents/TheLaboratory/Classified/BaC@UCSD/SDHacks2018/contracts/InspectBlock.sol",
  "compiler": {
    "name": "solc",
    "version": "0.4.24+commit.e67f0147.Emscripten.clang"
  },
  "schemaVersion": "2.0.1",
  "updatedAt": "2018-10-14T07:14:57.564Z"
}